:10000000E5C0000004C1000002C1000000C1000002
:10001000FEC00000FCC00000FAC00000F8C00000F4
:10002000F6C00000F4C00000F2C00000F0C0000004
:10003000DCC30000ECC00000EAC00000E8C0000023
:10004000E6C00000E4C00000E2C00000E0C0000024
:10005000DEC00000DCC00000DAC00000D8C0000034
:10006000D6C000000C941A210C946C21D0C0000062
:10007000CEC00000CCC00000CAC00000C8C0000054
:10008000C6C00000C4C00000C2C00000C0C0000064
:100090000C94B0210C940222BAC000000C940228E7
:1000A000B6C00000B4C00000B2C00000B0C0000084
:1000B000AEC00000ACC00000AAC00000A8C0000094
:1000C000A6C00000A4C00000A2C000000C944622FC
:1000D0000C9498229CC000000C94DC220C942E23DB
:1000E00096C00000F916F916F916301738174D1793
:1000F000F916F916301738172428942894289428CC
:10010000942894289428942824289428942894287F
:10011000942894289428942826289428942894286D
:1001200094289428942894289428942894289428EF
:10013000942894289428942826289428942894284D
:1001400094289428942894289428942894289428CF
:1001500094289428942894289028942894289428C3
:1001600094289428942894285B28942894289428E8
:10017000942894289428942894289428942894289F
:1001800094289428942894284F28942894289428D4
:10019000942894289428942873280E94490B8091CD
:1001A000D112823008F05BD20E947617F6CFCF933F
:1001B000DF931F92CDB7DEB7CE0101960E94761471
:1001C00049810E946B160E94C216F6CF11241FBEF1
:1001D000CFEFD1E2DEBFCDBF00E00CBF18E0A0E062
:1001E000B2E0E0E1FFE500E00BBF02C007900D9236
:1001F000AC3AB107D9F725E1ACEAB8E001C01D92ED
:10020000A734B207E1F70E94691A0C94862FF8CE42
:10021000E8EBF8E0ACEBB8E0B183A0831382128284
:10022000ECE7F2E1F093B708E093B608138212828C
:100230001182108280EC99E013969C938E93129712
:10024000ED93FC939093B3088093B2089093B50814
:100250008093B40880E090E89093AD088093AC0858
:100260000895CF93DF93EC01A8EBB8E001C0DF0164
:10027000ED91FC911197EC17FD07C8F312968D9143
:100280009C9113979D01280F391FC217D30749F47A
:100290002A813B81820F931F13969C938E93129712
:1002A000ED018A819B819E01280F391FE217F30718
:1002B000C1F42091B6083091B708E217F30771F046
:1002C00022813381820F931F9B838A83ED91FC915E
:1002D0001197808191819983888305C03983288310
:1002E00002C0F983E883CA17DB0711F0CD93DC93D2
:1002F000DF91CF910895EF92FF920F931F93CF93C9
:10030000DF938C010E94940C8091B6089091B708FD
:10031000892B09F47DDF8091AC089091AD08802392
:100320009123892B09F076C00115110549F0C80108
:1003300004960817190718F000E010E001C08C01BE
:100340000115110509F469C08091B4089091B508B0
:100350008017910708F464C0C091B808D091B9081B
:10036000E8EBF8E002C0FE01EC018A819B81801776
:10037000910720F4888199810097A9F78091B608A8
:100380009091B708C817D90709F44DC0E080F180F3
:1003900084E0E80EF11C88819981918380832A8111
:1003A0003B81201B310B2930310548F0CE01800FF5
:1003B000911FFC01338322831B830A8352DF2A812E
:1003C0003B818091B4089091B508821B930B909368
:1003D000B5088093B4084091B2085091B3088417CF
:1003E000950720F49093B3088093B2088091AC08ED
:1003F0009091AD08282B392B3B832A8319821882D0
:100400008091B0089091B10801969093B1088093C3
:10041000B0080BC0E12CF12C08C0E12CF12C05C078
:10042000E12CF12C02C0E12CF12C0E94D40DE1143E
:10043000F10411F40E948217C701DF91CF911F913F
:100440000F91FF90EF9008950F931F93CF93DF9339
:10045000009791F1EC0124974A815B812091AC08CF
:100460003091AD08BA0162237323672B29F16881AB
:100470007981672B09F520953095242335233B831B
:100480002A830E94940C8A819B812091B408309128
:10049000B508820F931F9093B5088093B408CE01DE
:1004A000E0DE8091AE089091AF0801969093AF087E
:1004B0008093AE080E94D40DDF91CF911F910F91D0
:1004C0000895FC010396928381834FEF5FEFBA0199
:1004D000438354836583768390878783928781875C
:1004E00010820895FC011386128608950F931F93BE
:1004F000CF93DF93EB01088119812A813B810F3F64
:100500004FEF14072407340721F4FC01A185B285BD
:1005100011C0DC01139601C0DF011496ED91FC912E
:100520001597408151816281738104171507260751
:10053000370790F71496ED91FC911597FD83EC83A6
:10054000D783C683BF83AE831596DC93CE9314976F
:100550009B878A87FC0120812F5F2083DF91CF91C9
:100560001F910F910895CF93DF93FC01A285B3856E
:10057000C481D581868197819F838E83C681D781EF
:10058000848195819D838C8311968D919C91129786
:10059000E817F90731F48681978112969C938E9320
:1005A0001197138612868C9181508C938C91DF91D8
:1005B000CF910895A89590EC88E10FB6F894A8958E
:1005C000809360000FBE909360000895FC016083EB
:1005D000319770833197108231971082319720E8DC
:1005E000208331971082319710823197108277974C
:1005F00040833197508386970895DCDFA0913F13A5
:10060000B0914013CD91CDBFDD91DEBFFF91EF9151
:10061000DF91CF91BF91AF919F918F917F916F911A
:100620005F914F913F912F911F910F91FF90EF900C
:10063000DF90CF90BF90AF909F908F907F906F9002
:100640005F904F903F902F901F900F900CBE0F9097
:100650000BBE0F900FBE0F90089581E008950F928A
:100660000FB6F8940F920BB60F920CB60F921F9222
:1006700011242F923F924F925F926F927F928F92AE
:100680009F92AF92BF92CF92DF92EF92FF920F9321
:100690001F932F933F934F935F936F937F938F930A
:1006A0009F93AF93BF93CF93DF93EF93FF93A0916B
:1006B0003F13B09140130DB60D920EB60D920E94ED
:1006C000300FA0913F13B0914013CD91CDBFDD917C
:1006D000DEBFFF91EF91DF91CF91BF91AF919F91DD
:1006E0008F917F916F915F914F913F912F911F91CA
:1006F0000F91FF90EF90DF90CF90BF90AF909F90C1
:100700008F907F906F905F904F903F902F901F90B1
:100710000F900CBE0F900BBE0F900FBE0F90089560
:100720000F920FB6F8940F920BB60F920CB60F9271
:100730001F9211242F923F924F925F926F927F925D
:100740008F929F92AF92BF92CF92DF92EF92FF92E1
:100750000F931F932F933F934F935F936F937F93C9
:100760008F939F93AF93BF93CF93DF93EF93FF93B9
:10077000A0913F13B09140130DB60D920EB60D929D
:1007800013BE0E94A80C81110E94300FA0913F134C
:10079000B0914013CD91CDBFDD91DEBFFF91EF91C0
:1007A000DF91CF91BF91AF919F918F917F916F9189
:1007B0005F914F913F912F911F910F91FF90EF907B
:1007C000DF90CF90BF90AF909F908F907F906F9071
:1007D0005F904F903F902F901F900F900CBE0F9006
:1007E0000BBE0F900FBE0F9008959ADF18950FB6AD
:1007F000F8940F92FC01868D811102C081E001C046
:1008000080E00F900FBE08950FB6F8940F92FC0190
:10081000268D878D281302C081E001C080E00F90F3
:100820000FBE08950F931F93CF93DF93EC01042F16
:100830001E8D48A141110CC088819981892B09F036
:1008400042C08C819D810E9441111D821C8242C048
:10085000011117C050E08A819B810E94092C28A1B8
:100860008A819B81820F911D9B838A832C813D818C
:100870008217930750F1888199819B838A8380E056
:1008800029C050E08E819F810E94092C88A190E0B0
:100890009195819591092E813F81280F391F3F83C2
:1008A0002E83488159812417350730F42C813D81EE
:1008B000820F931F9F838E83023049F4112349F0E6
:1008C000115080E007C080E005C080E003C080E0F8
:1008D00001C080E01F5F1E8FDF91CF911F910F91AC
:1008E0000895FC0140A14423A9F050E026813781FE
:1008F000240F351F37832683848195812817390774
:1009000020F08081918197838683CB0166817781F6
:100910000C94092C08951F93CF93DF93EC010FB62D
:10092000F8940F921AA10BC08B89882351F0CE0145
:1009300043960E94EE0F81110E942A111150111648
:100940009CF38FEF8AA30F900FBE0FB6F8940F920F
:1009500019A10BC08885882351F0CE0108960E940A
:10096000EE0F81110E942A11115011169CF38FEF86
:1009700089A30F900FBEDF91CF911F910895CF9360
:10098000DF93EC010FB6F8940F92E881F9818F8D17
:1009900028A190E030E0829FA001839F500D929F9C
:1009A000500D11244E0F5F1F5D834C831E8EFB8301
:1009B000EA830197289FA001299F500D389F500D71
:1009C0001124CF01840F951F9F838E838FEF89A3FE
:1009D0008AA361110BC08885882371F0CE01089627
:1009E0000E94EE0F882341F03ADE06C0CE01089641
:1009F00068DDCE01439665DD0F900FBE81E0DF918B
:100A0000CF9108950F931F93F801611103C01183D3
:100A1000008302C051834083878F60A361E0CF01D0
:100A2000AEDF1F910F910895DF92EF92FF920F9327
:100A30001F93CF93DF93F82EE62ED42E869FC0010E
:100A40001124839658DCEC01009741F08C012D2D88
:100A5000AC014D5D5F4F6E2D8F2DD4DFCE01DF9148
:100A6000CF911F910F91FF90EF90DF900895CF925B
:100A7000DF92EF92FF920F931F93CF93DF93CDB747
:100A8000DEB729970FB6F894DEBF0FBECDBF7C014D
:100A90006B012E833F834887598710E00FB6F89487
:100AA0000F92F701968D878D981710F00230B1F4F0
:100AB000402FB601C701B6DEF7019389992341F0B3
:100AC000C70143960E94EE0F882321F0C8DD02C0C3
:100AD0008111C5DD0F900FBE81E04CC08E819F81DA
:100AE000A885B985892B8A2B8B2B21F40F900FBEFB
:100AF00080E040C0111105C0CE0101960E94B310E4
:100B000011E00F900FBE10D70FB6F8940F92F701B7
:100B100081A18F3F09F411A2F70182A18F3F09F44F
:100B200012A20F900FBEBE016A5F7F4FCE010196E9
:100B30000E94C410811119C0C70166DE882381F0AC
:100B40004E815F8168857985C70108960E94950F5F
:100B5000C701E1DE0E94D40D8111A0CF80DD9ECFC0
:100B6000C701D9DE0E94D40D99CFC701D4DE0E94FF
:100B7000D40D80E029960FB6F894DEBF0FBECDBF2E
:100B8000DF91CF911F910F91FF90EF90DF90CF9069
:100B900008950F93009769F0FC0115821482118269
:100BA0001082168200E020E030E0A90160E070E0F1
:100BB0005EDF0F910895CF93DF93482F60E081E0CF
:100BC00033DFEC01E6DFCE01DF91CF910895EF92A4
:100BD000FF920F931F93CF93DF938A01FC01568DF1
:100BE000378D531710F02230F9F4422F7801EC01C1
:100BF0001AA18E8DCE0116DE1F3F81F48B898823CA
:100C0000A9F0CE0143960E94EE0F882389F0E114EB
:100C1000F10481F081E0F70180830DC0FF24F3949B
:100C2000F10EFAA281E007C080E005C081E003C0B8
:100C300081E001C081E0DF91CF911F910F91FF9082
:100C4000EF900895CF92DF92EF92FF920F931F9350
:100C5000CF93DF93CDB7DEB729970FB6F894DEBFF9
:100C60000FBECDBF8C016B012E833F834887598710
:100C7000E12C0FB6F8940F92F801F68CFF2099F052
:100C8000B601C8012EDEFA94F801F68E808588231D
:100C900031F0C80108960E94EE0F8111E0DC0F9040
:100CA0000FBE81E04FC08E819F81A885B985892BB9
:100CB0008A2B8B2B21F40F900FBE80E043C0E110F4
:100CC00006C0CE0101960E94B310EE24E3940F906B
:100CD0000FBE2AD60FB6F8940F92F80181A18F3F6C
:100CE00009F411A2F80182A18F3F09F412A20F901A
:100CF0000FBEBE016A5F7F4FCE0101960E94C410F5
:100D0000811117C0C80173DD882379F04E815F819E
:100D100068857985C80143960E94950FC801FBDD5F
:100D200043D78111A6CF9BDCA4CFC801F4DD3CD70B
:100D3000A0CFC801F0DD38D7C80159DD882309F4F8
:100D400098CF80E029960FB6F894DEBF0FBECDBFD6
:100D5000DF91CF911F910F91FF90EF90DF90CF9097
:100D60000895CF93DF93EC010FB6F8940F9289A109
:100D70008F3F09F419A28AA18F3F09F41AA20F909C
:100D80000FBE8E8D811104C0CE0143960E94AC0F20
:100D9000CE01C1DDDF91CF910895FC0144815581E1
:100DA00022813381240F351F80819181B901681B15
:100DB000790BCB016417750710F0841B950B089510
:100DC0000F93FC018FE0DF011D928A95E9F775878B
:100DD0006487558344833783268306870F9108955C
:100DE000AF92BF92CF92DF92EF92FF920F931F9339
:100DF000CF93DF936C015B017A01FC01C281D38147
:100E0000048115810C1B1D0B4017510708F48A0142
:100E1000F60184859585A801B5018C0F9D1F0E9460
:100E2000092C0E151F0558F4A701401B510BB501E5
:100E3000600F711FF601848595850E94092CCE01F3
:100E40008E0D9F1DF601248135818217930710F0C6
:100E5000821B930BF60193838283C701DF91CF91AD
:100E60001F910F91FF90EF90DF90CF90BF90AF90C8
:100E70000895CF92DF92EF92FF920F931F93CF933B
:100E8000DF931F921F92CDB7DEB77C016B015A83AF
:100E9000498321153105C1F0FC01868580FD08C01C
:100EA0004217530708F49A013A83298381E00FC05F
:100EB0002017310758F042E050E0BE016F5F7F4FCE
:100EC000C7018EDF81E003C080E001C080E088239D
:100ED00031F049815A81B601C70182DF02C080E04A
:100EE00090E00F900F90DF91CF911F910F91FF90A5
:100EF000EF90DF90CF900895AF92BF92CF92DF92A4
:100F0000EF92FF920F931F93CF93DF937C015B01CE
:100F1000E9014217530708F4EA01209781F1F7012C
:100F20000081118184819581801B910B6E018C174A
:100F30009D0708F46C01F70164857585600F711FCA
:100F4000A601C5010E94092CCC16DD0658F4AE019D
:100F50004C195D09F70164857585C5018C0D9D1DD2
:100F60000E94092C0C0F1D1FF70184819581081721
:100F7000190710F0081B190BF70111830083CE012C
:100F8000DF91CF911F910F91FF90EF90DF90CF9065
:100F9000BF90AF9008956F927F928F929F92AF9281
:100FA000BF92CF92DF92EF92FF920F931F93CF9356
:100FB000DF931F921F92CDB7DEB76C014B015A0130
:100FC000790101151105B1F0FC0160807180A80163
:100FD000BE016F5F7F4F90DF89819A81E01AF10A2D
:100FE000A816B90630F4F60171826082A12CB12CEA
:100FF00001C05C019701A501B401C6017DDF0F901E
:101000000F90DF91CF911F910F91FF90EF90DF90A4
:10101000CF90BF90AF909F908F907F906F900895EA
:10102000CF92DF92EF92FF920F93CF93DF93EC0179
:101030006B01413011F401E001C000E0C114D104A2
:1010400019F4CC24C394D12CCE014096C817D907EB
:1010500020F4219650D97C0102C0E12CF12CE1143E
:10106000F10439F09601AE01B701615F7F4FC7010E
:10107000A7DEC701DF91CF910F91FF90EF90DF9036
:10108000CF9008950F930FB6F8940F92FC0120852E
:101090003185232B71F422853385232B61F426813E
:1010A00037814481558164857585068589DE81E0B7
:1010B00003C080E001C080E00F900FBE0F91089543
:1010C000FC012481358180819181820F931F4281AF
:1010D0005381841B950B01978217930710F0821B95
:1010E000930B08952F923F924F925F926F927F924F
:1010F0008F929F92AF92BF92CF92DF92EF92FF9228
:101100000F931F93CF93DF93CDB7DEB72B970FB617
:10111000F894DEBF0FBECDBF4C017B876A871A01F2
:101120000E831F8328873987FC018481958101976D
:10113000268520FF0CC02A01F2E04F0E511C8415B9
:10114000950558F41E821F821886198606C08417DA
:10115000950710F02A0101C02C018E819F81A8857E
:10116000B985892B8A2B8B2B09F436C0CE010196C9
:10117000E4D70FB6F8940F92C401A2DF3C018415A6
:10118000950538F560E080E090E00E945C140E94D4
:101190002E11F401938782870F900FBEAE80BF801F
:1011A000C884D984E12CF12C00E010E0980140E0E3
:1011B00050E0BA0180E00E949C11F401138612866F
:1011C000BE016A5F7F4FCE010196DED7882389F288
:1011D00005C00F900FBE02C0612C712C6114710408
:1011E00019F4C4016DDF3C0182019301A1016A85FC
:1011F0007B85C4013EDE6C01892BE9F0C401CDDDA5
:10120000F4012681378182179307A8F08DD3F4016A
:1012100080859185892B71F080859185E12CF12C59
:1012200000E020E030E0A90160E00E944312F401F8
:1012300011861086B9D4C6012B960FB6F894DEBF7E
:101240000FBECDBFDF91CF911F910F91FF90EF9017
:10125000DF90CF90BF90AF909F908F907F906F90D6
:101260005F904F903F902F900895AF92BF92CF9292
:10127000DF92EF92FF920F931F93CF93DF93EC01D6
:101280007B015A0169018E8580FF04C08A010E5FCF
:101290001F4F01C08A01CE0113DF9C01A501B701D8
:1012A000CE01E7DD5C01892BC1F0CE0176DD2E8118
:1012B0003F818217930788F088859985892B69F08B
:1012C00088859985E12CF12C00E020E030E0A9012F
:1012D00060E00E943A1319861886C501DF91CF910C
:1012E0001F910F91FF90EF90DF90CF90BF90AF9044
:1012F00008954F925F926F927F928F929F92AF92DA
:10130000BF92CF92DF92EF92FF920F931F93CF93F2
:10131000DF93EC012B013A01580169018E8580FFB2
:1013200005C06894882481F8912C02C0812C912CEE
:10133000A114B104C104D10431F10FB6F8940F9295
:10134000CE012BDD7C018816990640F060E080E03C
:1013500090E00E945C1482D7998788870F900FBE17
:101360008E149F0498F0E12CF12C00E010E098011D
:1013700040E050E0BA0180E0DFD719861886CE0140
:101380000CDD7C0103C0CE0108DD7C018E149F04BE
:10139000E8F484019701A301B201CE01FCDD6C01E8
:1013A000892BB1F0C1D28A859B85892B69F08A850A
:1013B0009B85E12CF12C00E020E030E0A90160E009
:1013C0000E9443121B861A86EFD302C0C12CD12C77
:1013D000C601DF91CF911F910F91FF90EF90DF90A9
:1013E000CF90BF90AF909F908F907F906F905F90C5
:1013F0004F900895E091B912F091BA128081811155
:101400000CC08FEF9FEFDC018093831290938412C6
:10141000A0938512B09386120895E091B912F091CD
:10142000BA120780F085E02D80819181A281B3817D
:101430008093831290938412A0938512B0938612A6
:101440000895CF93DF93EC018B8D9C8D0E94240235
:10145000CE010E942402DF91CF9108954F925F92B6
:101460006F927F928F929F92AF92BF92CF92DF92B4
:10147000EF92FF920F93CF93DF932C015B014A0110
:101480003901E60165EA70E08B8D9C8D0E94122C7B
:101490008B8D9C8D21E0821A9108880E991EA114D3
:1014A000B10489F415C0822F90E0F501E80FF91F0F
:1014B0003081DE01A80FB91F5D963C93808188239F
:1014C00029F02F5F01C020E0203168F31CA601C085
:1014D0001D8E0A3008F009E00A8F0DA71EA6CE0166
:1014E000029600D8CE010E960E947202DB87CA8750
:1014F0008AE090E0A0E0B0E0801B9109A109B10969
:101500008E879F87A88BB98BDF8BCE8B84E0FE0103
:10151000BF96DF011D928A95E9F71BAAA301B201CC
:10152000C40154D899838883E114F10419F0F701B8
:10153000D183C083DF91CF910F91FF90EF90DF9027
:10154000CF90BF90AF909F908F907F906F905F9063
:101550004F900895CF93C0E009C02BE0C29FC00117
:1015600011248F529D4E0E946102CF5FCA30A8F3B2
:1015700086EC92E10E9461028BEB92E10E94610293
:101580008CEA92E10E94610281EA92E10E9461028A
:1015900085E992E10E94610286EC92E19093BA1291
:1015A0008093B9128BEB92E19093B8128093B712AB
:1015B000CF910895CF93DF93EC010FB6F8940F927B
:1015C000809194128F5F8093941280913F13909139
:1015D0004013892B51F4D0934013C0933F13809153
:1015E0009412813091F4B6DF10C080918E12811177
:1015F0000CC0E0913F13F0914013928D8A8D8917B2
:1016000020F0D0934013C0933F13809187128F5FD7
:1016100080938712EA8D80918F128E1710F4E093D9
:101620008F128BE08E9FF0011124EF52FD4E01804E
:10163000F281E02DFF83EE83268137813987288769
:10164000A681B7819E012E5F3F4F15963C932E9346
:10165000149737832683EA8D8E9FF0011124EF5271
:10166000FD4EFD87EC8780818F5F80830F900FBEDA
:1016700080918E12882351F0E0913F13F091401336
:10168000928D8A8D981710F40E942F03DF91CF91CD
:101690000895CF93DF931BC00FB6F8940F92E0919B
:1016A000A812F091A912C085D185CE0102960E94A0
:1016B000B302809194128150809394128091A01271
:1016C00081508093A0120F900FBECE01BADE8091A0
:1016D000A0128111E1CFDF91CF9108958F929F9257
:1016E000AF92BF92CF92DF92EF92FF92CF93DF93B0
:1016F0006B017C01C42F8090901290909112A09069
:101700009212B090931280913F13909140130296E1
:101710000E94B3028FEFC816D806E806F806B1F5A6
:10172000CC23A1F1E5E9F2E1A181B281C0913F139F
:10173000D0914013BF83AE83C0913F13D09140132B
:1017400016968D919C911797998788871696CD91BB
:10175000DC91179780913F139091401302969D83DF
:101760008C8380913F1390914013029617969C931F
:101770008E931697A0913F13B09140131D96FC9342
:10178000EE931C9780818F5F80833FC0C80CD91C6B
:10179000EA1CFB1CE0913F13F0914013C282D382FC
:1017A000E482F582C814D904EA04FB0468F4609169
:1017B0003F13709140138091B7129091B8126E5FF1
:1017C0007F4F0E94760221C060913F1370914013B9
:1017D0008091B9129091BA126E5F7F4F0E9476028B
:1017E0008091831290918412A0918512B0918612FB
:1017F000C816D906EA06FB0640F4C0928312D092BE
:101800008412E0928512F0928612DF91CF91FF90C0
:10181000EF90DF90CF90BF90AF909F908F90089502
:101820002F923F924F925F926F927F928F929F92F0
:10183000AF92BF92CF92DF92EF92FF920F93CF932E
:10184000DF933C011B014A012901CA010E947B016F
:101850006C01892B71F084E390E00E947B01EC0124
:10186000892B19F0DC8ECB8E06C0C6010E942402A3
:1018700002C0C0E0D0E0209761F0A12CB12C6E0135
:101880009201A401B101C301E9DDCE0193DE81E043
:1018900001C08FEFDF91CF910F91FF90EF90DF901C
:1018A000CF90BF90AF909F908F907F906F905F9000
:1018B0004F903F902F900895EF92FF920F930F2E2D
:1018C000F1E8EF2EF2E1FF2EF02D00E020E030E015
:1018D00040EC50E062E472E08DEC90E0A1DF8130FA
:1018E00011F40E9400158130C9F4F8948FEF9FEF36
:1018F000DC018093831290938412A0938512B0939D
:10190000861281E080938E121092901210929112A2
:1019100010929212109293120E94FD028091060280
:101920000F91FF90EF900895809180128F5F8093C8
:10193000801208950FB6F8940F92609190127091F2
:10194000911280919212909193120F900FBE089570
:10195000CF92DF92EF92FF92CF93DF93809180122C
:10196000811105C1C0909012D0909112E090921216
:10197000F09093128FEFC81AD80AE80AF80AC092BA
:101980009012D0929112E0929212F0929312C1149E
:10199000D104E104F104B1F48091B9129091BA122A
:1019A0002091B7123091B8123093BA122093B91225
:1019B0009093B8128093B712809188128F5F8093B2
:1019C000881218DD8091831290918412A091851263
:1019D000B0918612C816D906EA06FB0620F480E00C
:1019E000B2C081E001C080E0E091B912F091BA127A
:1019F000908191110CC04FEF5FEFBA0140938312B9
:101A00005093841260938512709386129CC0E0916B
:101A1000B912F091BA120780F085E02D0084F185AB
:101A2000E02D4281538164817581C416D506E60696
:101A3000F70648F440938312509384126093851202
:101A40007093861280C0A485B585C681D781208514
:101A500031853F832E83C085D185268137813D83A3
:101A60002C8311964D915C9112979F012E5F3F4FF1
:101A70004217530731F44085518512965C934E937B
:101A80001197158614869C9191509C93A08DB18DD1
:101A9000109709F1C289D389448955895F834E83A0
:101AA000C489D589428953895D834C8311966D9190
:101AB0007C911297AF01425F5F4F6417750731F455
:101AC0004489558912965C934E931197118E108E0E
:101AD0009C9191509C93A28D90918F129A1710F423
:101AE000A0938F129BE09A9FD0011124AF52BD4E5C
:101AF00011960D90BC91A02DB783A68316964D919B
:101B00005C911797518740871696CD91DC91179776
:101B10003D832C8317963C932E931697A28D9A9F04
:101B2000D0011124AF52BD4EB587A4879C919F5F11
:101B30009C93228DE0913F13F0914013928D2917D1
:101B400008F04FCF51CFE0913F13F0914013E28D59
:101B50009BE0E99FF0011124EF52FD4E90819230FD
:101B600008F081E090918912911116C016C0809101
:101B70008A1290918B12A0918C12B0918D120196C5
:101B8000A11DB11D80938A1290938B12A0938C1289
:101B9000B0938D1280E001C081E0DF91CF91FF9082
:101BA000EF90DF90CF900895CF92DF92EF92FF9267
:101BB000CF93DF930FB6F8940F92809180128150EB
:101BC00080938012809180128111BEC08091941206
:101BD000811188C0BCC0E091B312F091B4120084AE
:101BE000F185E02DA08DB18DC289D3898489958935
:101BF0009F838E83C489D589828993899D838C83B1
:101C000011962D913C911297CF010E962817390706
:101C100031F48489958912969C938E931197118E35
:101C2000108E8C9181508C93A485B585C681D78107
:101C3000808591859F838E83C085D185868197819C
:101C40009D838C8311968D919C9112979F012E5F9D
:101C50003F4F8217930731F48085918512969C93AC
:101C60008E931197158614868C9181508C93A28D3A
:101C700080918F128A1710F4A0938F128BE08A9FA5
:101C8000D0011124AF52BD4E11960D90BC91A02DE4
:101C9000B783A68316964D915C911797518740871D
:101CA0001696CD91DC9117973D832C8317963C9324
:101CB0002E931697A28D8A9FD0011124AF52BD4E4C
:101CC000B587A4878C918F5F8C93928DA0913F13E1
:101CD000B09140135A968C91981730F081E0809320
:101CE000891202C0E0E0F0E08091AC12811173CF64
:101CF000EF2B09F07FDBC0908A12D0908B12E0901E
:101D00008C12F0908D12C114D104E104F104A1F001
:101D10001FDE882319F081E08093891281E0C81AC0
:101D2000D108E108F108A1F710928A1210928B12E3
:101D300010928C1210928D1280918912882331F0AA
:101D40000E942F0381E003C080E001C080E00F907B
:101D50000FBEDF91CF91FF90EF90DF90CF9008956D
:101D60008F929F92AF92BF92CF92DF92EF92FF92AB
:101D70001F93CF93DF93EC016A017B01D5DD809047
:101D8000901290909112A0909212B090931288812C
:101D90009981AA81BB81AC01BD014C0D5D1D6E1DF9
:101DA0007F1D88169906AA06BB0660F448175907D6
:101DB0006A077B0798F484169506A606B70680F096
:101DC00010E013C0481759076A077B0758F08416BC
:101DD0009506A606B70640F010E007C010E005C063
:101DE00011E003C011E001C011E0488359836A8308
:101DF0007B83112341F0CB01BA01681979098A0963
:101E00009B0940E06BDCD0DE811102C00E942F03F1
:101E1000812FDF91CF911F91FF90EF90DF90CF90B6
:101E2000BF90AF909F908F900895CF92DF92EF92E6
:101E3000FF926B017C01672B682B692B39F074DDF5
:101E400040E0C701B6014ADCAFDE01C080E081118D
:101E500002C00E942F03FF90EF90DF90CF90089573
:101E600080918012882321F081E080938912089567
:101E700010928912E0913F13F0914013208131813B
:101E8000E0913F13F0914013838D948D8217930757
:101E900060F060913F1370914013635E7F4F8091BB
:101EA0003F13909140130E948E1780918F1201C0B2
:101EB0008150282F30E09BE0929FF001939FF00D1E
:101EC0001124EF52FD4E9081992391F39BE0929F54
:101ED000A001939F500D1124DF010180F281E02DBC
:101EE0000480F581E02D1296FC93EE9311974C52ED
:101EF0005D4EE417F50729F444815581FD015283B5
:101F000041839BE0929FF001939FF00D1124EF52CB
:101F1000FD4E0180F281E02D208531853093401304
:101F200020933F1380938F120895CF92DF92EF9208
:101F3000FF926A017B0160913F1370914013625FD1
:101F40007F4F0E94760241E0C701B601C7DBFF90D8
:101F5000EF90DF90CF900895CF93DF93FC01CB01FA
:101F6000BA01A181B281C0913F13D0914013BB8BC4
:101F7000AA8BC0913F13D091401316964D915C915E
:101F800017975D8B4C8B1696CD91DC9117974091EE
:101F90003F1350914013425F5F4F5D834C834091EC
:101FA0003F1350914013425F5F4F17965C934E93DF
:101FB0001697A0913F13B09140135996FC93EE935E
:101FC000589730813F5F3083222319F06FEF7FEF06
:101FD000CB01422F83DBDF91CF910895CF93DF9325
:101FE000DC011796ED91FC9118970084F185E02DA6
:101FF000A08DB18DC289D389848995899F838E8371
:10200000C489D589828993899D838C8311968D910A
:102010009C9112979F01225F3F4F8217930731F4E3
:102020008489958912969C938E931197118E108EA8
:102030008C9181508C9380918012811152C0A48523
:10204000B585C681D781808591859F838E83C08524
:10205000D185868197819D838C8311968D919C91EA
:1020600012979F012E5F3F4F8217930731F48085AF
:10207000918512969C938E931197158614868C9158
:1020800081508C93A28D80918F128A1710F4A093A7
:102090008F128BE08A9FD0011124AF52BD4E119652
:1020A0000D90BC91A02DB783A68316964D915C919F
:1020B0001797518740871696CD91DC9117973D83EE
:1020C0002C8317963C932E931697A28D8A9FD0014E
:1020D0001124AF52BD4EB587A4878C918F5F8C932E
:1020E0001CC04CEA52E1DA011196CD91DC911297B5
:1020F000D38BC28B8E819F81958B848B8E819F81A8
:10210000DC0115963C932E9314973F832E83518FB9
:10211000408FDA018C918F5F8C93928DE0913F1309
:10212000F0914013828D891720F481E08093891209
:1021300001C080E0DF91CF9108950FB6F8940F921F
:1021400020918812FC0120834091901250919112AD
:1021500060919212709193124183528363837483CE
:102160000F900FBE089520918812FC0120834091AA
:10217000901250919112609192127091931241833A
:1021800052836383748308958F929F92AF92BF921C
:10219000CF92DF92EF92FF920F931F93CF93DF9333
:1021A000FB010FB6F8940F92C0909012D09091124C
:1021B000E0909212F0909312DC0111960D911D9116
:1021C0002D913C91149746015701801A910AA20A59
:1021D000B30A40815181628173814F3FBFEF5B073A
:1021E0006B077B0739F1EC01B881A0918812BA170F
:1021F00059F0C016D106E206F30630F010821182C3
:102200001282138281E017C084169506A606B706CF
:1022100058F4481959096A097B094083518362833C
:102220007383A1DF80E007C01082118212821382C3
:1022300081E001C080E00F900FBEDF91CF911F9130
:102240000F91FF90EF90DF90CF90BF90AF909F9055
:102250008F90089581E080938912089580913F13B3
:1022600090914013089580918E12882331F08091CF
:102270008012811104C082E0089581E0089580E019
:1022800008950F931F93CF93DF93FC01892B09F4DB
:1022900049C086A5815086A7228D95A5291709F4E6
:1022A00043C0811143C0EF018F010E5F1F4FC80172
:1022B0000E94B302EDA5EA8F8AE090E0A0E0B0E0D2
:1022C0008E1B9109A109B1098E879F87A88BB98BB5
:1022D00080918F128E1710F4E0938F128BE08E9FF7
:1022E000F0011124EF52FD4E0180F281E02DFF83B9
:1022F000EE832681378139872887A681B781159695
:102300001C930E93149717830683EA8D8E9FF0011A
:102310001124EF52FD4EFD87EC8780818F5F808313
:1023200081E005C080E003C080E001C080E0DF9173
:10233000CF911F910F9108954F925F926F927F926C
:10234000AF92BF92CF92DF92EF92FF920F931F93C3
:10235000CF93DF93280139010FB6F8940F92E091E3
:102360003F13F0914013C82FD0E0EC0FFD1F83A95D
:10237000823071F1E0913F13F0914013CE01880F4C
:10238000991F880F991FE80FF91F87A590A9A1A988
:10239000B2A94095509560957095482359236A23BA
:1023A0007B2347A750AB61AB72ABE0913F13F09139
:1023B0004013EC0FFD1F81E083ABA114B104C104F5
:1023C000D10431F041E0C601B50188D90E942F0344
:1023D0000F900FBE0FB6F8940F92E114F104A1F024
:1023E000E0913F13F0914013CE01880F991F880FA1
:1023F000991FE80FF91F87A590A9A1A9B2A9F70114
:1024000080839183A283B383E0913F13F0914013C3
:10241000EC0FFD1F83A98230E9F4E0913F13F091A6
:102420004013CE01880F991F880F991FE80FF91FDD
:1024300087A590A9A1A9B2A94094509460947094E2
:10244000482259226A227B2247A650AA61AA72AA70
:1024500081E001C080E020913F1330914013C20F12
:10246000D31F1BAA0F900FBEDF91CF911F910F9129
:10247000FF90EF90DF90CF90BF90AF907F906F90E4
:102480005F904F9008958F929F92AF92BF92EF927C
:10249000FF920F93CF93DF93DC010FB6F8940F9266
:1024A000E114F10489F0E62FF0E0EE0FFF1FEE0FCC
:1024B000FF1FE80FF91F87A490A8A1A8B2A8F701F1
:1024C00080829182A282B38270E0FD01E60FF71F45
:1024D00083A992E093AB023001F118F4013031F09E
:1024E0004DC0033079F10430D1F148C0660F771F39
:1024F000660F771FFD01E60FF71F87A490A8A1A81C
:10250000B2A8BA01A901482959296A297B2947A7F4
:1025100050AB61AB72AB01E034C0660F771F660F42
:10252000771FFD01E60FF71F47A550A961A972A902
:102530004F5F5F4F6F4F7F4F47A750AB61AB72ABA1
:1025400001E01FC0660F771F660F771FFD01E60FC2
:10255000F71F27A730AB41AB52AB01E012C082306E
:1025600079F0660F771F660F771FFD01E60FF71FE3
:1025700027A730AB41AB52AB01E003C001E001C083
:1025800000E0813009F069C01C96ED91FC911D9727
:102590001696CD91DC91179718968D919C9119976D
:1025A0009F838E831896CD91DC91199716968D9105
:1025B0009C9117979D838C83818192819D012E5FD1
:1025C0003F4F8217930731F418968D919C9119977C
:1025D000928381831D961C921E921C97808181504C
:1025E00080835A96EC915A9780918F128E1710F42F
:1025F000E0938F128BE08E9FF0011124EF52FD4E7D
:102600000180F281E02D1796FC93EE931697468198
:10261000578119965C934E931897C681D7813D8355
:102620002C83378326835A96EC915A978E9FF0011C
:102630001124EF52FD4E1D96FC93EE931C97808162
:102640008F5F80835A969C91E0913F13F0914013E5
:10265000828D891710F40E942F030F900FBE802FD8
:10266000DF91CF910F91FF90EF90BF90AF909F902F
:102670008F9008958F929F92AF92BF92CF92DF92E8
:10268000EF92FF920F93CF93DF93DC01E114F104FB
:1026900089F0E62FF0E0EE0FFF1FEE0FFF1FE80FAF
:1026A000F91F87A490A8A1A8B2A8F70180829182FF
:1026B000A282B38270E0FD01E60FF71F93A982E0CA
:1026C00083AB023001F118F4013031F04DC003301A
:1026D00079F10430D1F148C0660F771F660F771F7C
:1026E000FD01E60FF71F87A490A8A1A8B2A8BA0120
:1026F000A901482959296A297B2947A750AB61AB11
:1027000072AB81E034C0660F771F660F771FFD0143
:10271000E60FF71F47A550A961A972A94F5F5F4F48
:102720006F4F7F4F47A750AB61AB72AB81E01FC0CB
:10273000660F771F660F771FFD01E60FF71F27A7AC
:1027400030AB41AB52AB81E012C0923079F0660FF2
:10275000771F660F771FFD01E60FF71F27A730AB26
:1027600041AB52AB81E003C081E001C080E0913019
:1027700009F096C09091801291115FC01C96ED9166
:10278000FC911D971696CD91DC91179718962D9177
:102790003C9119973F832E831896CD91DC91199720
:1027A00016962D913C9117973D832C834181528140
:1027B0009D012E5F3F4F4217530731F418964D91FC
:1027C0005C911997528341831D961C921E921C970F
:1027D0009081915090835A96EC915A9790918F12D4
:1027E0009E1710F4E0938F129BE09E9FF00111243E
:1027F000EF52FD4E0180F281E02D1796FC93EE938F
:1028000016974681578119965C934E931897C68107
:10281000D7813D832C83378326835A96EC915A9730
:102820009E9FF0011124EF52FD4E1D96FC93EE93F6
:102830001C9790819F5F908321C06CEA72E1FB013D
:10284000C181D2815396DC93CE9352972E813F81E2
:1028500055963C932E9354974E815F819D01225F44
:102860003F4FFA01358324833F832E8359967C930F
:102870006E935897FB0190819F5F90835A962C919D
:10288000E0913F13F0914013928D921748F4C114D8
:10289000D10419F091E0F601908391E090938912B0
:1028A000DF91CF910F91FF90EF90DF90CF90BF908D
:1028B000AF909F908F900895009721F480913F13DF
:1028C000909140130FB6F8940F9270E0FC01E60F60
:1028D000F71F23A9223031F4FC01E60FF71F13AADA
:1028E00081E001C080E00F900FBE0895DC01E0910F
:1028F0004B13F0914C13808191E0811190E09C93F7
:10290000911108C00780F085E02D6081718182817E
:102910009381089560E070E0CB010895CF92DF923B
:10292000EF92FF920F931F93FC01428353836483C2
:102930007583938782870417150726073707C0F02A
:102940000C191D092E093F0986859785A089B18933
:10295000081719072A073B0700F5BF016E5F7F4F75
:102960008091491390914A130E94760280E018C02A
:102970000C151D052E053F0528F44C155D056E054B
:102980007F0568F4BF016E5F7F4F80914B1390917C
:102990004C130E94760280E003C081E001C081E018
:1029A0001F910F91FF90EF90DF90CF9008950FB699
:1029B000F8940F928091471390914813892BE9F472
:1029C00088E593E10E9461028DE493E10E94610237
:1029D00088E593E190934C1380934B138DE493E13E
:1029E00090934A138093491340E067E08AE00E9485
:1029F000140590934813809347130F900FBE0895CA
:102A0000EF92FF920F93D3DF809147139091481379
:102A1000892B91F00F2EF5E4EF2EF3E1FF2EF02D30
:102A200003E020E030E040EC50E067E472E087ED46
:102A300090E00E94100C01C080E00F91FF90EF9099
:102A400008958F929F92AF92BF92CF92DF92EF92B2
:102A5000FF920F931F93CF93DF93CDB7DEB72797E6
:102A60000FB6F894DEBF0FBECDBFE0914713F091D3
:102A70004813309781F169832A833B834C835D83BC
:102A80009F838E836630F4F4EEDB823069F400E0DD
:102A9000A7019601BE016F5F7F4F80914713909110
:102AA00048130E94370518C000E020E030E0A9017B
:102AB000BE016F5F7F4F80914713909148130E9432
:102AC00037050AC020E0A801BE016F5F7F4FCF012C
:102AD0000E94E70501C080E027960FB6F894DEBF9C
:102AE0000FBECDBFDF91CF911F910F91FF90EF905F
:102AF000DF90CF90BF90AF909F908F9008958F926E
:102B00009F92AF92BF92CF92DF92EF92FF920F937C
:102B10001F93CF93DF933BC00780F085E02D80802B
:102B20009180A280B380C085D1858E010E5F1F4F3A
:102B3000C8010E94B302EC89FD89CE0119958E89E6
:102B400082FF25C08E859F85A889B989880D991D2A
:102B5000AA1DBB1D88169906AA06BB0670F48A83B7
:102B60009B83AC83BD83DB87CA87B80180914B13FD
:102B700090914C130E9476020AC0C12CD12C760190
:102B800000E010E0A501940160E0CE015ADFE09181
:102B90004B13F0914C1380818111BECF809149136A
:102BA00090914A1390934C1380934B13F0934A13D4
:102BB000E0934913DF91CF911F910F91FF90EF9018
:102BC000DF90CF90BF90AF909F908F900895CF925D
:102BD000DF92EF92FF92CF93DF93EC010E949A0C69
:102BE0006B017C018091411390914213A09143139A
:102BF000B0914413C816D906EA06FB0620F47FDF1D
:102C000081E0888301C01882C0924113D0924213A0
:102C1000E0924313F0924413C701B601DF91CF91C4
:102C2000FF90EF90DF90CF9008954F925F926F9258
:102C30007F928F929F92AF92BF92CF92DF92EF924C
:102C4000FF920F931F93CF93DF934B015C012901F8
:102C50003A01E0914B13F0914C130780F085E02D81
:102C6000C085D185CE0102960E94B3028E8982FF73
:102C70001BC04E855F8568897989480D591D6A1D7D
:102C80007B1D7501640193018201CE0147DE88231B
:102C900069F0C12CD12C760100E010E0A50194016F
:102CA00060E0CE01CEDE02C08E7F8E8BEC89FD8986
:102CB000CE011995DF91CF911F910F91FF90EF9069
:102CC000DF90CF90BF90AF909F908F907F906F904C
:102CD0005F904F9008958F929F92AF92BF92CF9244
:102CE000DF92EF92FF921F93CF93DF931F92CDB7A6
:102CF000DEB76B017C01142F0E94940CCE0101966B
:102D000066DF4B015C01898181112DC011110DC05D
:102D10008C149D04AE04BF0440F00E94D40DA501A4
:102D20009401C701B60181DF20C0112341F0E09179
:102D30004913F0914A13808111E0811110E0B7012D
:102D4000A601481959096A097B09212F8091471367
:102D5000909148130E94B1060E94D40D811105C0C4
:102D60000E942F0302C00E94D40D0F90DF91CF91DB
:102D70001F91FF90EF90DF90CF90BF90AF909F900A
:102D80008F900895AF92BF92CF92DF92EF92FF9211
:102D90000F931F93CF93DF93CDB7DEB728970FB66E
:102DA000F894DEBF0FBECDBF82C0898188230CF4AA
:102DB0007EC0AE80BF80D5011C968D919C911D97E1
:102DC000892B21F0C50102960E94B302CE0108961C
:102DD000FEDE8B019C01E9810E2E000CFF0BEA3018
:102DE000F10508F064C08827EE58FF4F8F4F0C9410
:102DF000C22AF50186898160868BCA80DB80EC80DF
:102E0000FD8046855785608971894C0D5D1D6E1D5D
:102E10007F1DC50183DD882309F449C0D50154967F
:102E2000ED91FC915597C5011995F501868982FFB1
:102E30003EC04A815B816C817D8186859785A089B2
:102E4000B1899A01AB01280F391F4A1F5B1FC12CA2
:102E5000D12C760100E010E060E0C501F2DD27C072
:102E6000D50156968C9156978E7F56968C931FC09F
:102E7000F50186898160868B4A815B816C817D81C9
:102E800046875787608B718B400F511F621F731FDE
:102E900068017901C50142DD0AC0F501868981FD1D
:102EA00004C0C5010E94240202C08E7F868B20E0F0
:102EB00030E0A901BE016F5F7F4F80914713909171
:102EC00048130E942206811170CF28960FB6F894FD
:102ED000DEBF0FBECDBFDF91CF911F910F91FF904D
:102EE000EF90DF90CF90BF90AF900895089584B198
:102EF000806884B985B1806885B9089583B1806898
:102F000083B90895F4DF2FEF80E792E021508040ED
:102F10009040E1F700C00000F1DFF5CFE8DF2FEFD0
:102F200087EA91E6215080409040E1F700C0000020
:102F3000E5DFF5CFCF93DF9381E00E94E52435D51F
:102F4000B1D79F938F938FE492E09F938F930E94CA
:102F5000682CA9D6A7D79F938F9382E692E09F9380
:102F60008F930E94682C89E793E131D59BD7C9E7FD
:102F7000D3E1DF93CF939F938F938BE792E09F935F
:102F80008F930E94682CCE013ED58CD79F938F9350
:102F9000DF93CF938FE892E09F938F930E94682CEA
:102FA000AE0164EA72E087EC92E05BD77BD79F9337
:102FB0008F93DF93CF9384EA92E09F938F9387EC74
:102FC00092E09F938F9387ED92E09F938F930E945F
:102FD000682C4CD567D79F938F938DE093E09F9398
:102FE0008F930E94682C8DB79EB782960FB6F89487
:102FF0009EBF0FBE8DBF81E033D654D79F938F9372
:103000008CE193E09F938F930E94682C84EF91E072
:1030100032D648D79F938F9381E08F9384EF8F931D
:103020008DE393E09F938F930E94682C8DB79EB79A
:103030000A960FB6F8949EBF0FBE8DBFCAE080E01F
:103040001BD5D82F2FD79F938F931F92CF938DE5AA
:1030500093E09F938F930E94682C0F900F900F9096
:103060000F900F900F90D83059F080E00E944925C2
:1030700066E371E080E090E00E94150FC150F9F620
:10308000D83021F481E00E942B2509C081E00E9404
:103090003A2580E00E9408250E942F03FDCFDF9192
:1030A000CF910895CF93DF9300D01F92CDB7DEB7B5
:1030B0008DE793E09F938F930E94682C81E067D403
:1030C00062E070E080E090E00E94150F80E05FD445
:1030D00066E970E080E090E00E94150F11D42ADFCD
:1030E000E3E6F3E186E0818382E080830E949A0C2C
:1030F00069837A838B839C830F900F9048EA58E40E
:1031000060E070E0CE0101960E94B00E8AE893E084
:103110009F938F930E94682CE3E6F3E180E3828320
:1031200089E3838382E0848383EA858384E08683E2
:103130008AE1878383E00E945B2563E673E180E098
:10314000C4D4B0D69F938F9381EA93E09F938F93DB
:103150000E94682C0F900F900F900F900F900F907F
:10316000CDCFEF92FF920F93082F86EB93E09F93C2
:103170008F930E94682CE12CF12C20E030E048E88D
:1031800051E069EC73E082E598E10E94100C0F9029
:103190000F900F91FF90EF900895CF93DF9300D0A1
:1031A0001F92CDB7DEB70E949A0C69837A838B8316
:1031B0009C834EE350E060E070E0CE0101960E94F7
:1031C000B00E80ED93E00E947B2C82B1805882B9D2
:1031D000F0CFCF93DF93CDB7DEB728970FB6F89433
:1031E000DEBF0FBECDBF0E949A0C69837A838B83AA
:1031F0009C834FE150E060E070E0CE0101960E94B8
:10320000B00E1D821E821F8218860CD2882321F0E8
:1032100086ED93E00E947B2C4FE150E060E070E08F
:10322000CE0101960E94B00E12D2882391F08091B7
:10323000DD131F928F9380E097E09F938F930E94FE
:10324000682C8BEE93E00E947B2C0F900F900F90D8
:103250000F904FE150E060E070E0CE0101960E94D7
:10326000B00E0E94E725811108C086E094E09F938C
:103270008F930E94682C0F900F900E94FC2588234A
:1032800049F084E194E09F938F930E94682C0F9003
:103290000F9018C0CE0105960E94482628EE33E014
:1032A000482F429FC001439F900D11249F938F93FD
:1032B00086E294E09F938F930E94682C0F900F906A
:1032C0000F900F90D5D10FD1162F072FE6D18FE396
:1032D00094E00E947B2C0F931F9385E494E09F93CE
:1032E0008F930E94682C92B181E0892782B90F9058
:1032F0000F900F900F907DCFCF93DF9300D000D031
:10330000CDB7DEB7813009F072C0CE0101960E94C0
:103310003A2681110FC08A818F9389818F938EE61F
:1033200094E09F938F930E94682C0F900F900F90C2
:103330000F9006C0833021F48EE794E00E947B2C2E
:10334000CE0101960E940E2681110FC08A818F93B3
:1033500089818F9389EB94E09F938F930E94682CCF
:103360000F900F900F900F9006C0833021F48BECDC
:1033700094E00E947B2CCE0101960E942C268111A4
:103380000FC08A818F9389818F938FEF94E09F93F1
:103390008F930E94682C0F900F900F900F9006C093
:1033A000833021F482E195E00E947B2CCE010396CC
:1033B0000E944826811115C08E818F938D818F9335
:1033C0008C818F938B818F9387E495E09F938F936C
:1033D0000E94682C0F900F900F900F900F900F90FD
:1033E00006C0833021F483E595E00E947B2C26966D
:1033F0000FB6F894DEBF0FBECDBFDF91CF91089519
:10340000EF92FF920F9380913B1590913C15892B81
:1034100089F481E00E94DB0590933C1580933B1575
:10342000009741F000E020E030E0A90160E070E0AA
:103430000E943705E12CF12C02E020E030E040EC66
:1034400050E06FE374E089EE98E10E94100C01E017
:1034500020E030E040EC50E060ED73E08DEC98E16E
:103460000E94100C0F91FF90EF90089581B1816838
:1034700081B980E00E949023C3DF85E00E949724F9
:1034800060E070E081E043D283E06BCE0895B2D07B
:10349000811113C083E895E09F938F930E94682C5D
:1034A0008BE995E09F938F930E94682C81E0809335
:1034B000DD130F900F900F900F9008958CE799E116
:1034C0000E94CC25811104C083EB95E00C947B2CE9
:1034D0000895CCDF85EC95E00E947B2CD8DFEEDFF1
:1034E0000E945C0CFFCF04D06894B11150C00895C5
:1034F00033D088F09F5790F0B92F9927B751A0F09B
:10350000D1F0660F771F881F991F1AF0BA95C9F777
:1035100012C0B13081F03AD0B1E0089537C0672FC2
:10352000782F8827B85F39F0B93FCCF38695779527
:103530006795B395D9F73EF4909580957095619510
:103540007F4F8F4F9F4F089557FD9058440F551F41
:1035500059F05F3F71F04795880F97FB991F61F015
:103560009F3F79F087950895121613061406551F8C
:10357000F2CF4695F1DF08C0161617061806991FF8
:10358000F1CF86957105610508940895E894BB27ED
:1035900066277727CB0197F908956530F1F4FA0192
:1035A00080818F7390E0982F88272181822B9093C0
:1035B0000A02809309028281F0E48F9FC0011124E6
:1035C000FA01238126952695822B909308028093F9
:1035D000070281E08093DE130895643051F080E0AB
:1035E00090E4909308028093070290930A028093DC
:1035F000090208950F931F930DEC1AE120E034E2C5
:1036000044EF50E060E087E20E9432279093E0139D
:103610008093DF1321E0892B09F020E0822F1F9196
:103620000F9108958091DF139091E013009759F066
:1036300040E060E070E00E948327843031F4109213
:10364000DE1380E0089582E0089583E0089580917C
:10365000DF139091E013009739F064E00E94CF27C8
:10366000853021F083E0089582E0089580E0089598
:103670006091090270910A0280E090E00E94AD29F9
:1036800020E030E048EC52E40E94162A20E038EFB7
:103690004FE756E40C944229089560910702709117
:1036A000080280E090E00E94AD2920E030E045E291
:1036B00053E40E94162A20E038EF4FE756E40E94B8
:1036C000422920E030E040E252E40C94DB280895E7
:1036D0000F931F93CF93DF931F921F92CDB7DEB747
:1036E0008C0119822DC0E0914514EC3250F481E038
:1036F0008E0F80934514F0E0E958FB4E8A81808359
:1037000002C0109245148A818A30D1F44091451448
:1037100050E0FA01EB58FB4E1082415051099E01D6
:103720002F5F3F4F67E774E18091481490914914EF
:103730000E943509898181110E942F03109245143E
:10374000BE016E5F7F4FC80155D5882361F20F908F
:103750000F90DF91CF911F910F9108950F931F93B9
:10376000CF93DF938C01EB01809148149091491421
:103770000E944208B80181EE93E10E94492C2097F3
:1037800079F0E1EEF3E101900020E9F7319780E272
:1037900090E091838083BE0181EE93E10E943E2CF4
:1037A000E1EEF3E1DF010D900020E9F711978DE0E4
:1037B0009AE011969C938E9312961C920190002091
:1037C000E9F73197E15EF341AE2F81EE93E1AC0171
:1037D0006A2F80914A1490914B14B7D4811111C073
:1037E00008E215E020E030E04DE250E061ED74E1E8
:1037F00080914814909149140E94790981ED94E1D7
:1038000002C080E090E0DF91CF911F910F91089569
:103810002F923F924F925F926F927F928F929F92E0
:10382000AF92BF92CF92DF92EF92FF920F931F93CE
:10383000CF93DF935C01FC0101900020E9F7319701
:103840006F01C81AD90A5C2C0F2EF0E78F2EF8E012
:103850009F2EF02DE12CF12C4C2C3701F40101812D
:103860001281E80109900020E9F72197C01BD10BD4
:103870003C2EF9E0CF16D10458F0F4012080FEE090
:103880002F1206C0B801C5010E94192C892B09F519
:10389000442D351408F44C2F50E0B801C5010E94A6
:1038A000502C892B49F4F301EE0FFF1FE60DF71D95
:1038B000E059F74F20800DC08FEFE81AF80AE3E0D7
:1038C0008E0E911CF1E1EF16F10439F66894222472
:1038D00024F8822DDF91CF911F910F91FF90EF90EF
:1038E000DF90CF90BF90AF909F908F907F906F9020
:1038F0005F904F903F902F90089530DF89CF0895CB
:1039000080914814909149140C94420808958F9224
:103910009F92AF92CF92EF920F931F93CF93C82FA6
:103920008B0141E060E070E088EC90E00E941008BC
:1039300090934914809348141093471400934614AD
:103940000F2EF8E68F2EFBE19F2EF02D6894AA240F
:10395000A6F86894CC24C6F8E12C00E023E040E00F
:1039600051EE60E070E08C2F1ED390934B14809347
:103970004A14E7E0F1E0808180618083CF911F915C
:103980000F91EF90CF90AF909F908F9008958823E4
:1039900031F0E8E0F1E080818F7E80830895E8E0F7
:1039A000F1E0808180618083089560E070E086EFBF
:1039B00095E0D4DEE1EDF4E101900020E9F73197E4
:1039C000E15DF44181E0759708F080E00895CF93C0
:1039D000DF93EC0160E070E087E096E0BFDEE1EDB0
:1039E000F4E101900020E9F7E25EF44139F461ED81
:1039F00074E1CE010E94492C80E002C0188281E06F
:103A0000DF91CF910895FC0101900020E9F79F011B
:103A1000215131092817390729F4BC0185E396E0C3
:103A20006CCF089589E00895FC0101900020E9F72A
:103A30009F01215131092817390729F4BC0184E479
:103A400096E05BCF089589E00895FC010190002085
:103A5000E9F79F01215231092817390729F4BC01E0
:103A600083E596E04ACF089589E0089560E070E02C
:103A700082E996E042CF08950F931F93E82FF0E07C
:103A8000EE0FFF1FE459F74F608171818BE996E0DB
:103A900034DF811114C008E215E020E030E04DE28F
:103AA00050E061ED74E180914814909149140E94B6
:103AB0007909882321F081ED94E1AADE03C081ED2C
:103AC00094E1A6DE1F910F9108950F931F93CF935A
:103AD000DF931F92CDB7DEB7DB0111969C91119752
:103AE000953108F0B4C0992381F160E070E0272F90
:103AF00030E0462F50E0FD01E40FF51F92819295D2
:103B00009F709A3010F0995C01C0905DF901EE59F8
:103B1000FB4E90832F5F3F4FFD01E40FF51F928115
:103B20009F70492F50E04A30510514F0995C01C054
:103B3000905DF901EE59FB4E90837E5F6F5F1196A9
:103B40009C911197691798F201C070E0E72FF0E09F
:103B5000EE59FB4E10824C91811103C084EA96E02D
:103B600002C086EA96E022E634E13F932F931F924B
:103B70004F939F938F938AEA96E09F938F9384EA63
:103B800094E19F938F930E94AB2C60E070E084EAF5
:103B900094E1B3DE0FB6F894DEBF0FBECDBF811146
:103BA00059C008E215E020E030E04DE250E061ED60
:103BB00074E180914814909149140E9479098823F6
:103BC00009F447C081ED94E123DE8E3009F042C054
:103BD00087E089838091461490914714892BA9F13D
:103BE000BE016F5F7F4F81ED94E168D180934C14EB
:103BF000E981F0E0EF52FB4EDF010D900020E9F784
:103C00001197AE1BBF0BAA2391F0BB27CD010197E3
:103C10009C0112F42F5F3F4F3595279520934D144B
:103C2000AF014F5F5F4F64E18EE494E173D101E037
:103C300010E020E030E046E150E06CE474E1809177
:103C40004614909147140E9472088EE003C084E1EC
:103C500001C080E00F90DF91CF911F910F910895E7
:103C6000813019F06AEB76E002C063E977E08EEB11
:103C700096E043CE08959F938F938FEE96E09F93A7
:103C80008F9384EA94E19F938F930E94AB2C60E022
:103C900070E084EA94E131DE0F900F900F900F9066
:103CA0000F900F9008952F923F924F925F926F92D4
:103CB0007F928F929F92AF92BF92CF92DF92EF92BC
:103CC000FF920F931F93CF93DF93CDB7DEB7A097EB
:103CD0000FB6F894DEBF0FBECDBF6CE177E088E28F
:103CE00097E03CDD95DD8111A3C080E2E2E2F2E0E5
:103CF000DE01119601900D928A95E1F79E012F5FEA
:103D00003F4F6901E12CF12C0F2EF4E3AF2EF7E0C9
:103D1000BF2EF02D04EA14E10F2EFDE44F2EF7E044
:103D20005F2EF02D0F2EF4E68F2EF7E09F2EF02D54
:103D30000F2EFEE76F2EF7E07F2EF02D3E2C2F2C5E
:103D4000FF92EF92BF92AF921F930F930E94AB2C02
:103D500060E070E0C80102DD5BDD0F900F900F9016
:103D60000F900F900F90811163C032E03E15E8F480
:103D7000F60183818F9382818F9381818F938081DC
:103D80008F93FF92EF925F924F921F930F930E9437
:103D9000AB2C60E070E0C801E1DC3ADD0FB6F894CE
:103DA000DEBF0FBECDBF811143C02F923F929F92C5
:103DB0008F921F930F930E94AB2C60E070E0C801BC
:103DC000CDDC26DD0F900F900F900F900F900F908D
:103DD00081112EC02F923F927F926F921F930F936B
:103DE0000E94AB2C60E070E0C801B8DC11DD0F90E0
:103DF0000F900F900F900F900F90811119C03FEF0F
:103E0000E31AF30A84E0C80ED11C98E0E916F10425
:103E100009F094CF60E070E086E997E09FDCF8DC81
:103E2000811106C060E070E087EA97E097DCF0DC83
:103E3000A0960FB6F894DEBF0FBECDBFDF91CF9135
:103E40001F910F91FF90EF90DF90CF90BF90AF90B8
:103E50009F908F907F906F905F904F903F902F90AA
:103E60000895EF92FF920F931F93CF93DF93EC018E
:103E70008B017A0181E0F4DE81110DC0CE01D4DD29
:103E8000811109C0C801E1DD811105C0C701BBDD99
:103E9000811101C0EBDDDF91CF911F910F91FF9058
:103EA000EF90089590E0FC01EE0FFF1F8E0F9F1F13
:103EB000FC01E059F74F818192810895DC01009760
:103EC00029F1FB012081FC0101900020E9F73197E5
:103ED000E81BF90B822F90E0E817F907C8F080E0A3
:103EE00008C0880F382F330F330F830F8053890F8B
:103EF0002F5FFD01E20FF11D908130ED390F3A3057
:103F000010F49111EECFFB012083089580E0089515
:103F100080E008950F931F93CF93DF93DC01EA01B4
:103F20002097E1F1FA0101900020E9F73197E41BB5
:103F3000F50B329710F532C08D01040F151F30E0DC
:103F4000AE01420F531FFA019081913428F097532C
:103F5000592F5295507F03C0592F5295507F2C0FE7
:103F60003D1FF9019181913410F0975301C0905396
:103F7000950FF80190838F5F01C080E0282F220FFA
:103F8000482F50E0FE0101900020E9F73197EC1B2B
:103F9000FD0B4E175F0710F48613CECFDF91CF9144
:103FA0001F910F9108952F923F924F925F926F92BF
:103FB0007F928F929F92AF92CF92EF92FF920F9348
:103FC0001F93CF93DF93CDB7DEB7F82E2A013B01C5
:103FD00088E090E00E94E42A8C018F2D90E0FC01A3
:103FE000EE0FFF1FE250FB4E1183008301151105F8
:103FF00009F46EC0880F991FFC01E55FFD4F8081B9
:104000009181D8018D939C936C2D70E084E090E0B9
:104010000E94CA2A1C0161E070E086E090E00E94E4
:10402000CA2A7C014C2DB1010E94BF28F801F582FB
:10403000E4826A2D70E084E090E00E94CA2A1C01AC
:1040400061E070E086E090E00E94CA2A7C014A2D7F
:10405000B1010E94BF28D8011396FC92EE921297EC
:1040600017969C928E921697FFB6F894ED91FC915C
:10407000119736978081826080838D909C90C301D8
:10408000B2010E94AD2920E030E040E051E40E94FE
:10409000162A9B01AC0160E074E284E79BE40E9475
:1040A000422920E030E040E85FE30E94DB2820DA8C
:1040B000F40132976083D801ED91FC911197359707
:1040C00088E98083ED91FC91349786E08083FFBE80
:1040D000C801DF91CF911F910F91FF90EF90CF908A
:1040E000AF909F908F907F906F905F904F903F9098
:1040F0002F900895CF93DF93DC01892B01F1129665
:10410000ED91FC911397938182812581981B9223D5
:1041100084819817B1F0838126952823C081D181AD
:10412000C20FD11D68838F5F958189238383ED91B1
:10413000FC91359780818062808380E003C081E0BC
:1041400001C082E0DF91CF910895EF92FF920F932B
:104150001F93CF93DF937C01009709F441C0DC01EA
:104160001296ED91FC91139793818281981B858122
:1041700098238481891B8617A8F1662341F1842F37
:10418000952FDC016150462F50E04F5F5F4F480F85
:10419000591FE701EA81FB81938182812581981B68
:1041A00092238481981779F08C9193812695292305
:1041B000608171818B01020F111DE80188839F5F6F
:1041C0008581982393831196A417B50711F7D7011A
:1041D000ED91FC91359780818062808380E003C0FF
:1041E00081E001C082E0DF91CF911F910F91FF909C
:1041F000EF9008950097D1F0DC011496ED91FC91B9
:10420000159793818281981799F09281858186957F
:104210008923A081B181A80FB11D8C91DB018C9302
:104220009F5F85819823928380E0089581E00895BF
:1042300083E008951F920F920FB60F9211240BB6D0
:104240000F922F933F934F935F936F937F938F932F
:104250009F93AF93BF93CF93DF93EF93FF93A0917F
:10426000FE14B091FF14109711F16091C6001496DE
:10427000ED91FC911597938182812581981B922362
:104280008481981761F0838126952823C081D1818C
:10429000C20FD11D68838F5F958189238383169612
:1042A000ED91FC911797309711F0CD011995FF9181
:1042B000EF91DF91CF91BF91AF919F918F917F91BE
:1042C0006F915F914F913F912F910F900BBE0F9087
:1042D0000FBE0F901F9018951F920F920FB60F925E
:1042E00011240BB60F922F938F939F93AF93BF938D
:1042F000EF93FF93E091FE14F091FF143097B9F023
:104300000280F381E02D938182819817B1F0928130
:104310008581282F26952923A081B181A20FB11D67
:104320002C919F5F892382832093C6000BC0E1EC10
:10433000F0E080818F7D808305C0E1ECF0E080813A
:104340008F7D8083FF91EF91BF91AF919F918F916E
:104350002F910F900BBE0F900FBE0F901F901895CE
:104360001F920F920FB60F9211240BB60F922F933C
:104370003F934F935F936F937F938F939F93AF93ED
:10438000BF93CF93DF93EF93FF93A0910015B0916C
:104390000115109711F16091CE001496ED91FC91EA
:1043A0001597938182812581981B92238481981788
:1043B00061F0838126952823C081D181C20FD11D50
:1043C00068838F5F9581892383831696ED91FC9195
:1043D0001797309711F0CD011995FF91EF91DF916B
:1043E000CF91BF91AF919F918F917F916F915F918D
:1043F0004F913F912F910F900BBE0F900FBE0F90DA
:104400001F9018951F920F920FB60F9211240BB6A2
:104410000F922F938F939F93AF93BF93EF93FF933D
:10442000E0910015F09101153097B9F00280F38109
:10443000E02D938182819817B1F092818581282F98
:1044400026952923A081B181A20FB11D2C919F5FD8
:10445000892382832093CE000BC0E9ECF0E08081B9
:104460008F7D808305C0E9ECF0E080818F7D8083C3
:10447000FF91EF91BF91AF919F918F912F910F90ED
:104480000BBE0F900FBE0F901F9018951F920F92AA
:104490000FB60F9211240BB60F922F933F934F93A9
:1044A0005F936F937F938F939F93AF93BF93CF93BC
:1044B000DF93EF93FF93A0910215B091031510972E
:1044C00011F16091D6001496ED91FC9115979381AE
:1044D00082812581981B92238481981761F08381C2
:1044E00026952823C081D181C20FD11D68838F5F9B
:1044F0009581892383831696ED91FC9117973097C8
:1045000011F0CD011995FF91EF91DF91CF91BF91FE
:10451000AF919F918F917F916F915F914F913F915B
:104520002F910F900BBE0F900FBE0F901F901895FC
:104530001F920F920FB60F9211240BB60F922F936A
:104540008F939F93AF93BF93EF93FF93E0910215E7
:10455000F09103153097B9F00280F381E02D93813B
:1045600082819817B1F092818581282F2695292381
:10457000A081B181A20FB11D2C919F5F89238283FD
:104580002093D6000BC0E1EDF0E080818F7D808329
:1045900005C0E1EDF0E080818F7D8083FF91EF9198
:1045A000BF91AF919F918F912F910F900BBE0F9064
:1045B0000FBE0F901F9018951F920F920FB60F927B
:1045C00011240BB60F922F933F934F935F936F93EA
:1045D0007F938F939F93AF93BF93CF93DF93EF938B
:1045E000FF93A0910415B0910515109711F16091FA
:1045F00036011496ED91FC91159793818281258166
:10460000981B92238481981761F083812695282333
:10461000C081D181C20FD11D68838F5F95818923AD
:1046200083831696ED91FC911797309711F0CD0189
:104630001995FF91EF91DF91CF91BF91AF919F912C
:104640008F917F916F915F914F913F912F910F903B
:104650000BBE0F900FBE0F901F9018951F920F92D8
:104660000FB60F9211240BB60F922F938F939F9337
:10467000AF93BF93EF93FF93E0910415F09105156D
:104680003097B9F00280F381E02D938182819817F1
:10469000B1F092818581282F26952923A081B181AF
:1046A000A20FB11D2C919F5F892382832093360135
:1046B0000BC0E1E3F1E080818F7D808305C0E1E301
:1046C000F1E080818F7D8083FF91EF91BF91AF9169
:1046D0009F918F912F910F900BBE0F900FBE0F9057
:1046E0001F901895CF93DF931F92CDB7DEB7BE0111
:1046F0006F5F7F4F80910615909107157BDD8111CB
:10470000F6CF898190E00F90DF91CF910895682FC7
:104710008091061590910715EDDC80E090E00895FA
:104720008F929F92AF92CF92EF920F93812C912C08
:104730006894AA24A7F86894CC24C7F8E12C00E078
:1047400023E040E051EE60E070E02DDC909307152F
:1047500080930615E1E4F5E183E192E091838083A3
:10476000938382830F91EF90CF90AF909F908F9023
:10477000089590E0FC01EE0FFF1FE80FF91FEE0F08
:10478000FF1FE85FFA4E238121111FC09C01220FF9
:10479000331FF901E80FF91FEE0FFF1FE85FFA4E14
:1047A000A081B1814C91F901E80FF91FEE0FFF1FB5
:1047B000E85FFA4E81E090E0028002C0880F991F06
:1047C0000A94E2F7842B8C930895FC01EE0FFF1FEF
:1047D000DF01A80FB91FAA0FBB1FA85FBA4E0D902B
:1047E000BC91A02D2C91E80FF91FEE0FFF1FE85F81
:1047F000FA4E81E090E0028002C0880F991F0A946F
:10480000E2F7809582238C93089590E0FC01EE0FEF
:10481000FF1FE80FF91FEE0FFF1FE85FFA4E23811D
:10482000211120C09C01220F331FF901E80FF91F4D
:10483000EE0FFF1FE85FFA4EA081B1814C91F901A4
:10484000E80FF91FEE0FFF1FE85FFA4E81E090E0DE
:10485000028002C0880F991F0A94E2F78095842392
:104860008C930895FC01EE0FFF1FDF01A80FB91F05
:10487000AA0FBB1FA85FBA4E0D90BC91A02D2C9122
:10488000E80FF91FEE0FFF1FE85FFA4E81E090E09E
:10489000028002C0880F991F0A94E2F7822B8C9342
:1048A0000895CC24C394D12C6894BB24B2F8C8E0FA
:1048B000D5E110E08C81813081F018F1823061F512
:1048C000E881F9812081C6010A8002C0880F991F02
:1048D0000A94E2F7822780831FC08D818F5F8A3020
:1048E00010F48D8319C01D82E881F9812081C601F1
:1048F0000A8002C0880F991F0A94E2F782278083FA
:104900000BC00D81002329F0812F7FDF01500D8323
:1049100003C0BC82812F2DDF1F5F2696143051F615
:1049200065E070E080E090E00E94150FC0CFEF924C
:10493000FF920F931F93CF93DF93082F80E487B9E3
:10494000C8E0D5E10F2EF8E2EF2EF12CF02DF98220
:10495000E88286E08A831B8214E01C8380E009DF02
:1049600080E887B9FF82EE8287E0888719861A87F8
:1049700081E0FFDE80E283BB84E390E09D878C874B
:1049800085E08E871F86188B82E0F3DE80E18093BE
:10499000010182E091E09B8B8A8B1C8B1D8A1E8B10
:1049A00083E0E7DEE12CF12C20E030E040EC50E049
:1049B00063EA78E081E594E20E94100CDF91CF91E8
:1049C0001F910F91FF90EF900895CF93DF9390E0A8
:1049D000FC01EE0FFF1FDF01A80FB91FAA0FBB1FBD
:1049E000A85FBA4ECD91DC911197488121E030E06B
:1049F00012960C90129702C0220F331F0A94E2F70E
:104A000024272883FD0181E08483DF91CF910895DD
:104A1000CF93DF9390E0FC01EE0FFF1FDF01A80FA3
:104A2000B91FAA0FBB1FA85FBA4ECD91DC91119799
:104A3000488121E030E012960C90129702C0220FBC
:104A4000331F0A94E2F724272883FD0182E0848340
:104A5000DF91CF910895282F30E0F901EE0FFF1F6D
:104A6000E20FF31FEE0FFF1FE85FFA4E93E094830F
:104A7000CCCE0895282F30E0F901EE0FFF1FE20F92
:104A8000F31FEE0FFF1FE85FFA4E94E0948371CEA0
:104A9000089590E0FC01EE0FFF1FDF01A80FB91F82
:104AA000AA0FBB1FA85FBA4E24E015962C9315974A
:104AB000FD011482089590E0FC01EE0FFF1FDF015D
:104AC000A80FB91FAA0FBB1FA85FBA4E21E0159609
:104AD0002C931597FD0114820895E0912815F0910B
:104AE0002915309709F0199508956450623008F03F
:104AF0003BC020912715223079F018F4213031F095
:104B000030C0233081F02430A1F02BC022E020936C
:104B1000271561E044C20895FA018081809324152D
:104B200082E0DBCF089524E02093271564E037C2AC
:104B30000895FA01818190E0982F88272081822BA7
:104B40009093231580932215838190E0982F8827D6
:104B50002281822B909321158093201581E0BDCF77
:104B6000089580E0BACF08951092271586E0B5CF5A
:104B7000089520912A1530912B152115310541F00A
:104B8000462FBC01C901BFD1823021F080E00895D9
:104B900087E0089585E008950F931F93909329155A
:104BA0008093281505E715E220E034E244EF50E059
:104BB00060E089E257D190932B1580932A15892BB9
:104BC00011F080E001C088E01F910F910895CF930C
:104BD000DF931F921F92CDB7DEB780EA898383E00F
:104BE0008A831092271562E0CE010196C2DF0F90F2
:104BF0000F90DF91CF910895CF93DF931F92CDB7A0
:104C0000DEB784EB898383E08093271561E0CE01D2
:104C10000196AFDF0F90DF91CF910895209120157D
:104C2000309121152F3F4FEF340741F0409122156D
:104C3000509123154F3F6FEF560739F42FEF3FEF99
:104C4000FC013183208383E00895421B530BFC0158
:104C50005183408380E008952091201530912115E3
:104C6000FC01318320832F3F3F4F11F080E00895F6
:104C700083E008952091221530912315FC013183A2
:104C800020832F3F3F4F11F080E0089583E0089587
:104C90002F923F924F925F926F927F928F929F924C
:104CA000AF92BF92CF92DF92EF92FF920F931F933A
:104CB000CF93DF93C0912015D0912115CF3F2FEFD7
:104CC000D20741F060912215709123156F3FEFEFED
:104CD0007E0759F44FEF5FEF6FE77FE7FC014083FA
:104CE00051836283738383E099C01C0180E090E06C
:104CF00034D32B013C01BE0180E090E02ED34B0168
:104D00005C018091251590E0019624E6289FB00172
:104D1000299F700D112480912615803269F080330F
:104D2000A1F08031E1F40F2EC12CD12CF8ECEF2E44
:104D3000F1E4FF2EF02D1BC00F2EC12CD12CF6ED6F
:104D4000EF2EF3E4FF2EF02D12C00F2EC12CF0E554
:104D5000DF2EFAE1EF2EF6E4FF2EF02D08C00F2E25
:104D6000C12CD12CF0E8EF2EFFE3FF2EF02D072E03
:104D7000000C880B990BF3D2A701960157D320E0C2
:104D800030E04CEC53E47ED26B017C0125E83BEE35
:104D900041ED5FE3C501B40149D39B01AC01C301FF
:104DA000B20109D2A70196016DD2162FD72FC82FB5
:104DB000092F2DE33AE047E15FE3C301B20136D3A7
:104DC0002B013C0126EF38E24CE55FE3C501B4015D
:104DD0002DD39B01AC01C301B201EDD1A701960116
:104DE00051D2C62ED72EE82EF92E262F372F482F38
:104DF000592F612F7D2F8C2F902F14D3181624F04C
:104E00001C2DDD2DCE2D0F2D412F5D2F6C2F702FE2
:104E1000F101408351836283738380E0DF91CF91FE
:104E20001F910F91FF90EF90DF90CF90BF90AF90C8
:104E30009F908F907F906F905F904F903F902F90BA
:104E4000089580913A1581110CC08CE08093B800D0
:104E50008FEF8093BB0084E08093BC0081E080935F
:104E60003A150895AF92BF92CF92DF92EF92FF92E0
:104E70000F931F93CF93DF93A82EB62E69017A016B
:104E800084E090E0A1D3EC01892B61F1A88281E05C
:104E9000B81212C0C701B60120EA36E841E050E07E
:104EA0004FD3DA01C9014097A109B109B695A79579
:104EB00097958795898311C0C701B60120E83AE12B
:104EC00046E050E03DD3DA01C9014097A109B1099C
:104ED000B695A7959795879589831B830A838C2F11
:104EE0009D2F02C080E090E0DF91CF911F910F9144
:104EF000FF90EF90DF90CF90BF90AF90089580919A
:104F0000BC0081700895FF920F931F93CF93DF939E
:104F10000097D1F14A30D0F5F42E8B01EC01EFDF90
:104F2000811136C080912D1590912E15C817D90783
:104F300041F087DF89818093B800D0932E15C0930C
:104F40002D1581E08F0D80932F158881880F809318
:104F50003015FF2089F0F801A1E3B5E14FEF4F0DC7
:104F6000642F70E0CB010196B801680F791F819121
:104F70008D93E617F707D9F788EF8093210285EA2A
:104F80008093BC0084E005C086E003C087E001C0D8
:104F900082E0DF91CF911F910F91FF9008951F93B1
:104FA000CF93DF93009729F16B3028F5162FEC0192
:104FB000A6DF811122C080912D1590912E15C81762
:104FC000D90741F03EDF89818093B800D0932E1538
:104FD000C0932D1510932F158881880F81608093C1
:104FE000301588EF8093210285EA8093BC0085E02C
:104FF00005C086E003C087E001C082E0DF91CF9169
:105000001F9108951F920F920FB60F9211240BB6A5
:105010000F922F933F934F935F936F937F938F9351
:105020009F93AF93BF93EF93FF93E091B9008E2FBF
:1050300090E0FC013897E135F10508F075C088274C
:10504000E458FF4F8F4F9EC210922C15E0912C1503
:1050500080912F15E81770F481E08E0F80932C1546
:10506000F0E0E05DFA4E80818093BB0085E880939C
:10507000BC0072C084E98093BC0080912D15909192
:105080002E15DC011296ED91FC911397309709F4DF
:1050900063C020E040E050E064E019955DC0E0911D
:1050A0002C1581E08E0F80932C158091BB00F0E0D1
:1050B000E05DFA4E80838091B900803411F4109243
:1050C0002C1520912C1530E080912F1590E0019740
:1050D0002817390724F485EC8093BC003DC085E88F
:1050E0008093BC0039C08091BB00E0912C15F0E0AA
:1050F000E05DFA4E808384E98093BC0080912D1599
:1051000090912E15DC011296ED91FC91139730973A
:1051100019F120912F1540E355E165E019951CC068
:1051200085EA8093BC0018C08091B9008093210269
:1051300084E08093BC0080912D1590912E15DC01A8
:105140001296ED91FC911397309731F020E040E0FA
:1051500050E0609121021995FF91EF91BF91AF91BD
:105160009F918F917F916F915F914F913F912F917F
:105170000F900BBE0F900FBE0F901F901895FC0163
:10518000411101C042D3842F90E09C01215031098C
:1051900082239323892B09F038D3413808F035D383
:1051A000128213824483440F41504583718360838C
:1051B00080E090E008955058BB27AA270ED021C167
:1051C00012D130F017D120F031F49F3F11F41EF4CA
:1051D00007C10EF4E095E7FBFDC0E92F0E94A41A79
:1051E00078F3BA17620773078407950720F079F4FC
:1051F000A6F50C94C61A0EF4E0950B2EBA2FA02D2E
:105200000B01B90190010C01CA01A0011124FF2773
:10521000591B99F0593F50F4503E68F11A16F0406E
:10522000A22F232F342F4427585FF3CF469537956D
:105230002795A795F0405395C9F77EF41F16BA0B32
:10524000620B730B840BBAF09150A1F0FF0FBB1FE0
:10525000661F771F881FC2F70EC0BA0F621F731F29
:10526000841F48F4879577956795B795F7959E3F86
:1052700008F0B1CF9395880F08F09927EE0F979516
:10528000879508950DD0BDC0B5D048F0ACD038F0AA
:1052900021F45F3F21F09EC051110C94C71AA0C0A9
:1052A0000E94A41A88F39923B9F35523A1F3951BFF
:1052B000550BBB27AA2762177307840738F09F5F37
:1052C0005F4F220F331F441FAA1FA9F334D00E2EA5
:1052D0003AF0E0E831D091505040E695001CCAF712
:1052E0002AD0FE2F28D0660F771F881FBB1F2617D6
:1052F00037074807AB07B0E809F0BB0B802DBF01AB
:10530000FF2793585F4F32F09E3F510570F062C007
:105310000C94C71A5F3FE4F3983ED4F386957795D3
:105320006795B795F7959F5FC9F7880F911D96957B
:10533000879597F90895E1E0660F771F881FBB1FD7
:10534000621773078407BA0720F0621B730B840B84
:10535000BA0BEE1F88F7E0950895E89409C097FB13
:105360003EF490958095709561957F4F8F4F9F4F3C
:105370009923A9F0F92F96E9BB279395F695879580
:1053800077956795B795F111F8CFFAF4BB0F11F443
:1053900060FF1BC06F5F7F4F8F4F9F4F16C08823EA
:1053A00011F096E911C0772321F09EE8872F762F20
:1053B00005C0662371F096E8862F70E060E02AF061
:1053C0009A95660F771F881FDAF7880F969587954D
:1053D00097F9089597F99F6780E870E060E0089575
:1053E0009FEF80EC089500240A94161617061806FD
:1053F0000906089500240A941216130614060506D9
:105400000895092E0394000C11F4882352F0BB0F69
:1054100040F4BF2B11F460FF04C06F5F7F4F8F4FCC
:105420009F4F089569D008F48FEF08950CD0E9CF0D
:10543000DADF28F0DFDF18F0952309F0CBCFD0CFEB
:1054400011240C94C71A0E94A41A90F3959FC1F3DB
:10545000950F50E0551F629FF001729FBB27F00D22
:10546000B11D639FAA27F00DB11DAA1F649F662777
:10547000B00DA11D661F829F2227B00DA11D621FC6
:10548000739FB00DA11D621F839FA00D611D221F80
:10549000749F3327A00D611D231F849F600D211D64
:1054A000822F762F6A2F11249F57504092F0E9F0F7
:1054B00088234AF0EE0FFF1FBB1F661F771F881F50
:1054C00091505040A9F79E3F510578F083CF0C943E
:1054D000C71A5F3FE4F3983ED4F3869577956795B6
:1054E000B795F795E7959F5FC1F7FE2B880F911D44
:1054F0009695879597F90895990F0008550FAA0B6F
:10550000E0E8FEEF16161706E807F907C0F01216D6
:105510001306E407F50798F0621B730B840B950BD9
:1055200039F40A2661F0232B242B252B21F408952E
:105530000A2609F4A140A6958FEF811D811D0895CB
:10554000A1E21A2EAA1BBB1BFD010DC0AA1FBB1F87
:10555000EE1FFF1FA217B307E407F50720F0A21BF9
:10556000B30BE40BF50B661F771F881F991F1A9466
:1055700069F760957095809590959B01AC01BD0190
:10558000CF010895EE0FFF1F881F8BBF0790F69184
:10559000E02D19940F931F93CF93DF93869F800183
:1055A000879F100D969F100D1124C8010DD0EC019E
:1055B000009721F0A80160E070E034D1CE01DF91C6
:1055C000CF911F910F9108950F931F93CF93DF9366
:1055D0008230910510F482E090E0E0913F15F09167
:1055E000401520E030E0A0E0B0E0309719F14081B4
:1055F00051810281138148175907C8F08417950714
:1056000069F4109731F012960C93129713961C932D
:1056100027C000933F151093401522C02115310576
:1056200019F04217530718F49A01BD01EF01DF0189
:10563000F801DBCF21153105F9F0281B390B243097
:10564000310580F48A819B816115710521F0FB0190
:105650009383828304C09093401580933F15FE018D
:10566000329644C0FE01E20FF31F819391932250C2
:105670003109398328833AC020913D1530913E1578
:10568000232B41F4209102023091030230933E1506
:1056900020933D1520910002309101022115310522
:1056A00041F42DB73EB74091040250910502241BEE
:1056B000350BE0913D15F0913E15E217F307A0F48C
:1056C0002E1B3F0B2817390778F0AC014E5F5F4F58
:1056D0002417350748F04E0F5F1F50933E15409337
:1056E0003D158193919302C0E0E0F0E0CF01DF919E
:1056F000CF911F910F910895CF93DF93009709F4F5
:1057000081C0FC01329713821282A0913F15B091A3
:105710004015109781F420813181820F931F2091D1
:105720003D1530913E152817390751F5F0933E1578
:10573000E0933D1567C0ED0120E030E0CE17DF07B4
:1057400040F44A815B819E0141155105F1F0EA0167
:10575000F5CFD383C28340815181840F951FC81731
:10576000D90759F488819981840F951F02969183F6
:1057700080838A819B81938382832115310529F45B
:10578000F0934015E0933F153DC0E901FB83EA83A8
:1057900049915991C40FD51FEC17FD0761F4808121
:1057A0009181840F951F0296E901998388838281F4
:1057B00093819B838A83E0E0F0E012968D919C9127
:1057C0001397009719F0FD01DC01F7CF8D919C91A3
:1057D00011979D012E5F3F4F820F931F20913D1522
:1057E00030913E152817390769F4309729F4109243
:1057F000401510923F1502C013821282B0933E15DD
:10580000A0933D15DF91CF91089581E090E0F89449
:105810007DC3FB01DC0102C001900D92415050405C
:10582000D8F70895DC0101C06D9341505040E0F776
:105830000895FB0151915523B1F0BF01DC01052E04
:105840004D91442369F010D0D9F7CD01019000208B
:1058500049F04D91411108D0C9F3FB014111EECF40
:1058600081E090E001970895402539F0403229F415
:1058700040294B57465E08F018940895FB01DC015F
:105880000D900020E9F7119701900D920020E1F7AB
:105890000895FB01DC0101900D920020E1F70895CD
:1058A000FB01DC014150504088F08D9181341CF0A7
:1058B0008B350CF4805E619161341CF06B350CF417
:1058C000605E861B611171F3990B0895881BFCCFF4
:1058D000CF93DF93CDB7DEB7AE014A5F5F4FFA01DA
:1058E00061917191AF01809143159091441561D000
:1058F000DF91CF9108950F931F93CF93DF93E091A2
:105900004315F0914415238121FF1BC08C01D0E089
:10591000C0E0F80181918F016091431570914415A9
:10592000DB011896ED91FC911997882331F01995B8
:10593000892B79F3DFEFCFEFECCF8AE01995892B34
:1059400019F08FEF9FEF02C08D2F9C2FDF91CF9129
:105950001F910F9108950F931F93CF93DF93CDB7AE
:10596000DEB72E970FB6F894DEBF0FBECDBF0E89FF
:105970001F8986E08C831A8309838FEF9FE79E83BC
:105980008D83AE01465E5F4F688D798DCE010196A5
:1059900010D0EF81F885E00FF11F10822E960FB620
:1059A000F894DEBF0FBECDBFDF91CF911F910F9155
:1059B00008952F923F924F925F926F927F928F92B3
:1059C0009F92AF92BF92CF92DF92EF92FF920F938E
:1059D0001F93CF93DF93CDB7DEB72B970FB6F89415
:1059E000DEBF0FBECDBF6C017B018A01FC011782B7
:1059F0001682838181FFBFC1CE0101963C01F60171
:105A00009381F70193FD859193FF81917F01882315
:105A100009F4ADC1853239F493FD859193FF8191ED
:105A20007F01853221F4B60190E0D6D1E8CF912CE8
:105A3000212C312CFFE1F315D8F08B3279F038F4BA
:105A4000803279F08332A1F4232D20611DC08D3284
:105A500061F0803369F4232D216016C0832D8260AC
:105A6000382EE32DE4603E2E2AC0F32DF8601DC0D1
:105A700037FC2DC020ED280F2A3040F08E32B9F4CB
:105A800036FC75C1232D2064322E19C036FE06C0A7
:105A90008AE0989E200D1124922E11C0EAE02E9EDD
:105AA000200D1124222EF32DF0623F2E08C08C36DB
:105AB00021F4832D8068382E02C0883641F4F70126
:105AC00093FD859193FF81917F018111B3CF982F31
:105AD0009F7D9554933028F40C5F1F4F9FE399836B
